{
  "contractName": "AntiqueDegitize",
  "abi": [
    {
      "inputs": [],
      "stateMutability": "nonpayable",
      "type": "constructor"
    },
    {
      "anonymous": false,
      "inputs": [
        {
          "indexed": false,
          "internalType": "uint256",
          "name": "id",
          "type": "uint256"
        }
      ],
      "name": "AntiqueRemoved",
      "type": "event"
    },
    {
      "anonymous": false,
      "inputs": [
        {
          "indexed": false,
          "internalType": "uint256",
          "name": "id",
          "type": "uint256"
        },
        {
          "indexed": false,
          "internalType": "string",
          "name": "name",
          "type": "string"
        },
        {
          "indexed": false,
          "internalType": "string",
          "name": "category",
          "type": "string"
        },
        {
          "indexed": false,
          "internalType": "string",
          "name": "description",
          "type": "string"
        },
        {
          "indexed": false,
          "internalType": "string",
          "name": "imageName",
          "type": "string"
        }
      ],
      "name": "AntiqueUpdated",
      "type": "event"
    },
    {
      "anonymous": false,
      "inputs": [
        {
          "indexed": false,
          "internalType": "uint256",
          "name": "id",
          "type": "uint256"
        },
        {
          "indexed": false,
          "internalType": "string",
          "name": "name",
          "type": "string"
        },
        {
          "indexed": false,
          "internalType": "string",
          "name": "category",
          "type": "string"
        },
        {
          "indexed": false,
          "internalType": "string",
          "name": "description",
          "type": "string"
        },
        {
          "indexed": false,
          "internalType": "string",
          "name": "imageName",
          "type": "string"
        }
      ],
      "name": "AntiqueUploaded",
      "type": "event"
    },
    {
      "inputs": [
        {
          "internalType": "uint256",
          "name": "",
          "type": "uint256"
        }
      ],
      "name": "antiques",
      "outputs": [
        {
          "internalType": "uint256",
          "name": "id",
          "type": "uint256"
        },
        {
          "internalType": "string",
          "name": "name",
          "type": "string"
        },
        {
          "internalType": "string",
          "name": "category",
          "type": "string"
        },
        {
          "internalType": "string",
          "name": "description",
          "type": "string"
        },
        {
          "internalType": "string",
          "name": "imageName",
          "type": "string"
        }
      ],
      "stateMutability": "view",
      "type": "function",
      "constant": true
    },
    {
      "inputs": [],
      "name": "nextAntiqueId",
      "outputs": [
        {
          "internalType": "uint256",
          "name": "",
          "type": "uint256"
        }
      ],
      "stateMutability": "view",
      "type": "function",
      "constant": true
    },
    {
      "inputs": [],
      "name": "owner",
      "outputs": [
        {
          "internalType": "address",
          "name": "",
          "type": "address"
        }
      ],
      "stateMutability": "view",
      "type": "function",
      "constant": true
    },
    {
      "inputs": [
        {
          "internalType": "string",
          "name": "",
          "type": "string"
        }
      ],
      "name": "uniqueCategories",
      "outputs": [
        {
          "internalType": "bool",
          "name": "",
          "type": "bool"
        }
      ],
      "stateMutability": "view",
      "type": "function",
      "constant": true
    },
    {
      "inputs": [
        {
          "internalType": "string",
          "name": "name",
          "type": "string"
        },
        {
          "internalType": "string",
          "name": "category",
          "type": "string"
        },
        {
          "internalType": "string",
          "name": "description",
          "type": "string"
        },
        {
          "internalType": "string",
          "name": "imageName",
          "type": "string"
        }
      ],
      "name": "uploadAntique",
      "outputs": [],
      "stateMutability": "nonpayable",
      "type": "function"
    },
    {
      "inputs": [
        {
          "internalType": "uint256",
          "name": "antiqueId",
          "type": "uint256"
        },
        {
          "internalType": "string",
          "name": "name",
          "type": "string"
        },
        {
          "internalType": "string",
          "name": "category",
          "type": "string"
        },
        {
          "internalType": "string",
          "name": "description",
          "type": "string"
        },
        {
          "internalType": "string",
          "name": "imageName",
          "type": "string"
        }
      ],
      "name": "updateAntique",
      "outputs": [],
      "stateMutability": "nonpayable",
      "type": "function"
    },
    {
      "inputs": [
        {
          "internalType": "string",
          "name": "searchTerm",
          "type": "string"
        }
      ],
      "name": "searchAntique",
      "outputs": [
        {
          "components": [
            {
              "internalType": "uint256",
              "name": "id",
              "type": "uint256"
            },
            {
              "internalType": "string",
              "name": "name",
              "type": "string"
            },
            {
              "internalType": "string",
              "name": "category",
              "type": "string"
            },
            {
              "internalType": "string",
              "name": "description",
              "type": "string"
            },
            {
              "internalType": "string",
              "name": "imageName",
              "type": "string"
            }
          ],
          "internalType": "struct AntiqueDegitize.Antique[]",
          "name": "",
          "type": "tuple[]"
        }
      ],
      "stateMutability": "view",
      "type": "function",
      "constant": true
    },
    {
      "inputs": [
        {
          "internalType": "uint256",
          "name": "antiqueId",
          "type": "uint256"
        }
      ],
      "name": "removeAntique",
      "outputs": [],
      "stateMutability": "nonpayable",
      "type": "function"
    },
    {
      "inputs": [],
      "name": "getAntiques",
      "outputs": [
        {
          "components": [
            {
              "internalType": "uint256",
              "name": "id",
              "type": "uint256"
            },
            {
              "internalType": "string",
              "name": "name",
              "type": "string"
            },
            {
              "internalType": "string",
              "name": "category",
              "type": "string"
            },
            {
              "internalType": "string",
              "name": "description",
              "type": "string"
            },
            {
              "internalType": "string",
              "name": "imageName",
              "type": "string"
            }
          ],
          "internalType": "struct AntiqueDegitize.Antique[]",
          "name": "",
          "type": "tuple[]"
        }
      ],
      "stateMutability": "view",
      "type": "function",
      "constant": true
    },
    {
      "inputs": [],
      "name": "getAntiqueCategories",
      "outputs": [
        {
          "internalType": "string[]",
          "name": "",
          "type": "string[]"
        }
      ],
      "stateMutability": "view",
      "type": "function",
      "constant": true
    },
    {
      "inputs": [
        {
          "internalType": "string",
          "name": "category",
          "type": "string"
        }
      ],
      "name": "getAntiquesByCategory",
      "outputs": [
        {
          "components": [
            {
              "internalType": "uint256",
              "name": "id",
              "type": "uint256"
            },
            {
              "internalType": "string",
              "name": "name",
              "type": "string"
            },
            {
              "internalType": "string",
              "name": "category",
              "type": "string"
            },
            {
              "internalType": "string",
              "name": "description",
              "type": "string"
            },
            {
              "internalType": "string",
              "name": "imageName",
              "type": "string"
            }
          ],
          "internalType": "struct AntiqueDegitize.Antique[]",
          "name": "",
          "type": "tuple[]"
        }
      ],
      "stateMutability": "view",
      "type": "function",
      "constant": true
    },
    {
      "inputs": [
        {
          "internalType": "uint256",
          "name": "antiqueId",
          "type": "uint256"
        }
      ],
      "name": "getAntiqueById",
      "outputs": [
        {
          "components": [
            {
              "internalType": "uint256",
              "name": "id",
              "type": "uint256"
            },
            {
              "internalType": "string",
              "name": "name",
              "type": "string"
            },
            {
              "internalType": "string",
              "name": "category",
              "type": "string"
            },
            {
              "internalType": "string",
              "name": "description",
              "type": "string"
            },
            {
              "internalType": "string",
              "name": "imageName",
              "type": "string"
            }
          ],
          "internalType": "struct AntiqueDegitize.Antique",
          "name": "",
          "type": "tuple"
        }
      ],
      "stateMutability": "view",
      "type": "function",
      "constant": true
    },
    {
      "inputs": [],
      "name": "getTotalAntiques",
      "outputs": [
        {
          "internalType": "uint256",
          "name": "",
          "type": "uint256"
        }
      ],
      "stateMutability": "view",
      "type": "function",
      "constant": true
    }
  ],
  "bytecode": "0x608060405234801561001057600080fd5b50336000806101000a81548173ffffffffffffffffffffffffffffffffffffffff021916908373ffffffffffffffffffffffffffffffffffffffff16021790555060018081905550612d83806100676000396000f3fe608060405234801561001057600080fd5b50600436106100cf5760003560e01c8063842226f31161008c578063a067a1bd11610066578063a067a1bd14610226578063b255273e14610244578063cd1af4e714610262578063fa45669214610296576100cf565b8063842226f3146101a85780638da5cb5b146101d8578063a01160fb146101f6576100cf565b80630c7e1973146100d4578063194642e8146100f05780631e87f8e21461010e578063390abd901461012c57806370ff59cb1461015c5780637ff3e11f14610178575b600080fd5b6100ee60048036038101906100e9919061210e565b6102b2565b005b6100f86105a8565b604051610105919061214a565b60405180910390f35b6101166105bd565b604051610123919061214a565b60405180910390f35b610146600480360381019061014191906122ab565b6105c3565b60405161015391906124d8565b60405180910390f35b610176600480360381019061017191906124fa565b610a7a565b005b610192600480360381019061018d91906122ab565b610c5f565b60405161019f91906125ec565b60405180910390f35b6101c260048036038101906101bd919061210e565b610c95565b6040516101cf9190612692565b60405180910390f35b6101e0610f58565b6040516101ed91906126f5565b60405180910390f35b610210600480360381019061020b91906122ab565b610f7c565b60405161021d91906124d8565b60405180910390f35b61022e611591565b60405161023b91906127d2565b60405180910390f35b61024c611732565b60405161025991906124d8565b60405180910390f35b61027c6004803603810190610277919061210e565b611a5f565b60405161028d95949392919061283e565b60405180910390f35b6102b060048036038101906102ab91906128ad565b611cb5565b005b60008054906101000a900473ffffffffffffffffffffffffffffffffffffffff1673ffffffffffffffffffffffffffffffffffffffff163373ffffffffffffffffffffffffffffffffffffffff1614610340576040517f08c379a000000000000000000000000000000000000000000000000000000000815260040161033790612a0a565b60405180910390fd5b6001548110610384576040517f08c379a000000000000000000000000000000000000000000000000000000000815260040161037b90612a76565b60405180910390fd5b600260008281526020019081526020016000206000808201600090556001820160006103b09190611f25565b6002820160006103c09190611f25565b6003820160006103d09190611f25565b6004820160006103e09190611f25565b505060008190505b600180546103f69190612ac5565b8110156104ea576002600060018361040e9190612af9565b81526020019081526020016000206002600083815260200190815260200160002060008201548160000155600182018160010190805461044d90612b7e565b610458929190611f65565b50600282018160020190805461046d90612b7e565b610478929190611f65565b50600382018160030190805461048d90612b7e565b610498929190611f65565b5060048201816004019080546104ad90612b7e565b6104b8929190611f65565b5090505080600260008381526020019081526020016000206000018190555080806104e290612baf565b9150506103e8565b5060026000600180546104fd9190612ac5565b81526020019081526020016000206000808201600090556001820160006105249190611f25565b6002820160006105349190611f25565b6003820160006105449190611f25565b6004820160006105549190611f25565b50506001600081548092919061056990612bf7565b91905055507f693ed5413b9c448a8f36eb1f754e6e5fd7219debf75ae09a0e82c3acef77abcf8160405161059d919061214a565b60405180910390a150565b6000600180546105b89190612ac5565b905090565b60015481565b6060600080600190505b6001548110156106a65761067f6002600083815260200190815260200160002060020180546105fb90612b7e565b80601f016020809104026020016040519081016040528092919081815260200182805461062790612b7e565b80156106745780601f1061064957610100808354040283529160200191610674565b820191906000526020600020905b81548152906001019060200180831161065757829003601f168201915b505050505085611ecc565b1561069357818061068f90612baf565b9250505b808061069e90612baf565b9150506105cd565b5060008167ffffffffffffffff8111156106c3576106c2612180565b5b6040519080825280602002602001820160405280156106fc57816020015b6106e9611ff2565b8152602001906001900390816106e15790505b509050600080600190505b600154811015610a6e576107b960026000838152602001908152602001600020600201805461073590612b7e565b80601f016020809104026020016040519081016040528092919081815260200182805461076190612b7e565b80156107ae5780601f10610783576101008083540402835291602001916107ae565b820191906000526020600020905b81548152906001019060200180831161079157829003601f168201915b505050505087611ecc565b15610a5b57600260008281526020019081526020016000206040518060a0016040529081600082015481526020016001820180546107f690612b7e565b80601f016020809104026020016040519081016040528092919081815260200182805461082290612b7e565b801561086f5780601f106108445761010080835404028352916020019161086f565b820191906000526020600020905b81548152906001019060200180831161085257829003601f168201915b5050505050815260200160028201805461088890612b7e565b80601f01602080910402602001604051908101604052809291908181526020018280546108b490612b7e565b80156109015780601f106108d657610100808354040283529160200191610901565b820191906000526020600020905b8154815290600101906020018083116108e457829003601f168201915b5050505050815260200160038201805461091a90612b7e565b80601f016020809104026020016040519081016040528092919081815260200182805461094690612b7e565b80156109935780601f1061096857610100808354040283529160200191610993565b820191906000526020600020905b81548152906001019060200180831161097657829003601f168201915b505050505081526020016004820180546109ac90612b7e565b80601f01602080910402602001604051908101604052809291908181526020018280546109d890612b7e565b8015610a255780601f106109fa57610100808354040283529160200191610a25565b820191906000526020600020905b815481529060010190602001808311610a0857829003601f168201915b505050505081525050838381518110610a4157610a40612c20565b5b60200260200101819052508180610a5790612baf565b9250505b8080610a6690612baf565b915050610707565b50819350505050919050565b60008054906101000a900473ffffffffffffffffffffffffffffffffffffffff1673ffffffffffffffffffffffffffffffffffffffff163373ffffffffffffffffffffffffffffffffffffffff1614610b08576040517f08c379a0000000000000000000000000000000000000000000000000000000008152600401610aff90612a0a565b60405180910390fd5b6000600154905060016000815480929190610b2290612baf565b91905055506040518060a001604052808281526020018681526020018581526020018481526020018381525060026000838152602001908152602001600020600082015181600001556020820151816001019080519060200190610b87929190612021565b506040820151816002019080519060200190610ba4929190612021565b506060820151816003019080519060200190610bc1929190612021565b506080820151816004019080519060200190610bde929190612021565b509050506001600385604051610bf49190612c8b565b908152602001604051809103902060006101000a81548160ff0219169083151502179055507fbfbb38f57b9d121f5dc2476fa3eda467058e276ef12b99a17cc2ea3d22f8135a8186868686604051610c5095949392919061283e565b60405180910390a15050505050565b6003818051602081018201805184825260208301602085012081835280955050505050506000915054906101000a900460ff1681565b610c9d611ff2565b6001548210610ce1576040517f08c379a0000000000000000000000000000000000000000000000000000000008152600401610cd890612a76565b60405180910390fd5b600260008381526020019081526020016000206040518060a001604052908160008201548152602001600182018054610d1990612b7e565b80601f0160208091040260200160405190810160405280929190818152602001828054610d4590612b7e565b8015610d925780601f10610d6757610100808354040283529160200191610d92565b820191906000526020600020905b815481529060010190602001808311610d7557829003601f168201915b50505050508152602001600282018054610dab90612b7e565b80601f0160208091040260200160405190810160405280929190818152602001828054610dd790612b7e565b8015610e245780601f10610df957610100808354040283529160200191610e24565b820191906000526020600020905b815481529060010190602001808311610e0757829003601f168201915b50505050508152602001600382018054610e3d90612b7e565b80601f0160208091040260200160405190810160405280929190818152602001828054610e6990612b7e565b8015610eb65780601f10610e8b57610100808354040283529160200191610eb6565b820191906000526020600020905b815481529060010190602001808311610e9957829003601f168201915b50505050508152602001600482018054610ecf90612b7e565b80601f0160208091040260200160405190810160405280929190818152602001828054610efb90612b7e565b8015610f485780601f10610f1d57610100808354040283529160200191610f48565b820191906000526020600020905b815481529060010190602001808311610f2b57829003601f168201915b5050505050815250509050919050565b60008054906101000a900473ffffffffffffffffffffffffffffffffffffffff1681565b6060600080600190505b60015481101561110e57611038600260008381526020019081526020016000206001018054610fb490612b7e565b80601f0160208091040260200160405190810160405280929190818152602001828054610fe090612b7e565b801561102d5780601f106110025761010080835404028352916020019161102d565b820191906000526020600020905b81548152906001019060200180831161101057829003601f168201915b505050505085611ecc565b806110e757506110e660026000838152602001908152602001600020600201805461106290612b7e565b80601f016020809104026020016040519081016040528092919081815260200182805461108e90612b7e565b80156110db5780601f106110b0576101008083540402835291602001916110db565b820191906000526020600020905b8154815290600101906020018083116110be57829003601f168201915b505050505085611ecc565b5b156110fb5781806110f790612baf565b9250505b808061110690612baf565b915050610f86565b5060008167ffffffffffffffff81111561112b5761112a612180565b5b60405190808252806020026020018201604052801561116457816020015b611151611ff2565b8152602001906001900390816111495790505b509050600080600190505b6001548110156115855761122160026000838152602001908152602001600020600101805461119d90612b7e565b80601f01602080910402602001604051908101604052809291908181526020018280546111c990612b7e565b80156112165780601f106111eb57610100808354040283529160200191611216565b820191906000526020600020905b8154815290600101906020018083116111f957829003601f168201915b505050505087611ecc565b806112d057506112cf60026000838152602001908152602001600020600201805461124b90612b7e565b80601f016020809104026020016040519081016040528092919081815260200182805461127790612b7e565b80156112c45780601f10611299576101008083540402835291602001916112c4565b820191906000526020600020905b8154815290600101906020018083116112a757829003601f168201915b505050505087611ecc565b5b1561157257600260008281526020019081526020016000206040518060a00160405290816000820154815260200160018201805461130d90612b7e565b80601f016020809104026020016040519081016040528092919081815260200182805461133990612b7e565b80156113865780601f1061135b57610100808354040283529160200191611386565b820191906000526020600020905b81548152906001019060200180831161136957829003601f168201915b5050505050815260200160028201805461139f90612b7e565b80601f01602080910402602001604051908101604052809291908181526020018280546113cb90612b7e565b80156114185780601f106113ed57610100808354040283529160200191611418565b820191906000526020600020905b8154815290600101906020018083116113fb57829003601f168201915b5050505050815260200160038201805461143190612b7e565b80601f016020809104026020016040519081016040528092919081815260200182805461145d90612b7e565b80156114aa5780601f1061147f576101008083540402835291602001916114aa565b820191906000526020600020905b81548152906001019060200180831161148d57829003601f168201915b505050505081526020016004820180546114c390612b7e565b80601f01602080910402602001604051908101604052809291908181526020018280546114ef90612b7e565b801561153c5780601f106115115761010080835404028352916020019161153c565b820191906000526020600020905b81548152906001019060200180831161151f57829003601f168201915b50505050508152505083838151811061155857611557612c20565b5b6020026020010181905250818061156e90612baf565b9250505b808061157d90612baf565b91505061116f565b50819350505050919050565b60606000600180546115a39190612ac5565b67ffffffffffffffff8111156115bc576115bb612180565b5b6040519080825280602002602001820160405280156115ef57816020015b60608152602001906001900390816115da5790505b509050600080600190505b600154811015611729576003600260008381526020019081526020016000206002016040516116299190612d36565b908152602001604051809103902060009054906101000a900460ff16156117165760026000828152602001908152602001600020600201805461166b90612b7e565b80601f016020809104026020016040519081016040528092919081815260200182805461169790612b7e565b80156116e45780601f106116b9576101008083540402835291602001916116e4565b820191906000526020600020905b8154815290600101906020018083116116c757829003601f168201915b50505050508383815181106116fc576116fb612c20565b5b6020026020010181905250818061171290612baf565b9250505b808061172190612baf565b9150506115fa565b50819250505090565b60606000600180546117449190612ac5565b67ffffffffffffffff81111561175d5761175c612180565b5b60405190808252806020026020018201604052801561179657816020015b611783611ff2565b81526020019060019003908161177b5790505b5090506000600190505b600154811015611a5757600260008281526020019081526020016000206040518060a0016040529081600082015481526020016001820180546117e290612b7e565b80601f016020809104026020016040519081016040528092919081815260200182805461180e90612b7e565b801561185b5780601f106118305761010080835404028352916020019161185b565b820191906000526020600020905b81548152906001019060200180831161183e57829003601f168201915b5050505050815260200160028201805461187490612b7e565b80601f01602080910402602001604051908101604052809291908181526020018280546118a090612b7e565b80156118ed5780601f106118c2576101008083540402835291602001916118ed565b820191906000526020600020905b8154815290600101906020018083116118d057829003601f168201915b5050505050815260200160038201805461190690612b7e565b80601f016020809104026020016040519081016040528092919081815260200182805461193290612b7e565b801561197f5780601f106119545761010080835404028352916020019161197f565b820191906000526020600020905b81548152906001019060200180831161196257829003601f168201915b5050505050815260200160048201805461199890612b7e565b80601f01602080910402602001604051908101604052809291908181526020018280546119c490612b7e565b8015611a115780601f106119e657610100808354040283529160200191611a11565b820191906000526020600020905b8154815290600101906020018083116119f457829003601f168201915b50505050508152505082600183611a289190612ac5565b81518110611a3957611a38612c20565b5b60200260200101819052508080611a4f90612baf565b9150506117a0565b508091505090565b6002602052806000526040600020600091509050806000015490806001018054611a8890612b7e565b80601f0160208091040260200160405190810160405280929190818152602001828054611ab490612b7e565b8015611b015780601f10611ad657610100808354040283529160200191611b01565b820191906000526020600020905b815481529060010190602001808311611ae457829003601f168201915b505050505090806002018054611b1690612b7e565b80601f0160208091040260200160405190810160405280929190818152602001828054611b4290612b7e565b8015611b8f5780601f10611b6457610100808354040283529160200191611b8f565b820191906000526020600020905b815481529060010190602001808311611b7257829003601f168201915b505050505090806003018054611ba490612b7e565b80601f0160208091040260200160405190810160405280929190818152602001828054611bd090612b7e565b8015611c1d5780601f10611bf257610100808354040283529160200191611c1d565b820191906000526020600020905b815481529060010190602001808311611c0057829003601f168201915b505050505090806004018054611c3290612b7e565b80601f0160208091040260200160405190810160405280929190818152602001828054611c5e90612b7e565b8015611cab5780601f10611c8057610100808354040283529160200191611cab565b820191906000526020600020905b815481529060010190602001808311611c8e57829003601f168201915b5050505050905085565b60008054906101000a900473ffffffffffffffffffffffffffffffffffffffff1673ffffffffffffffffffffffffffffffffffffffff163373ffffffffffffffffffffffffffffffffffffffff1614611d43576040517f08c379a0000000000000000000000000000000000000000000000000000000008152600401611d3a90612a0a565b60405180910390fd5b6001548510611d87576040517f08c379a0000000000000000000000000000000000000000000000000000000008152600401611d7e90612a76565b60405180910390fd5b6000600360026000888152602001908152602001600020600201604051611dae9190612d36565b908152602001604051809103902060006101000a81548160ff0219169083151502179055506001600384604051611de59190612c8b565b908152602001604051809103902060006101000a81548160ff021916908315150217905550600060026000878152602001908152602001600020905084816001019080519060200190611e39929190612021565b5083816002019080519060200190611e52929190612021565b5082816003019080519060200190611e6b929190612021565b5081816004019080519060200190611e84929190612021565b507f537e8e9da5a368075beab82b7c398e1f73bf9352f08c958478bc76ec074209fd8686868686604051611ebc95949392919061283e565b60405180910390a1505050505050565b600081604051602001611edf9190612c8b565b6040516020818303038152906040528051906020012083604051602001611f069190612c8b565b6040516020818303038152906040528051906020012014905092915050565b508054611f3190612b7e565b6000825580601f10611f435750611f62565b601f016020900490600052602060002090810190611f6191906120a7565b5b50565b828054611f7190612b7e565b90600052602060002090601f016020900481019282611f935760008555611fe1565b82601f10611fa45780548555611fe1565b82800160010185558215611fe157600052602060002091601f016020900482015b82811115611fe0578254825591600101919060010190611fc5565b5b509050611fee91906120a7565b5090565b6040518060a0016040528060008152602001606081526020016060815260200160608152602001606081525090565b82805461202d90612b7e565b90600052602060002090601f01602090048101928261204f5760008555612096565b82601f1061206857805160ff1916838001178555612096565b82800160010185558215612096579182015b8281111561209557825182559160200191906001019061207a565b5b5090506120a391906120a7565b5090565b5b808211156120c05760008160009055506001016120a8565b5090565b6000604051905090565b600080fd5b600080fd5b6000819050919050565b6120eb816120d8565b81146120f657600080fd5b50565b600081359050612108816120e2565b92915050565b600060208284031215612124576121236120ce565b5b6000612132848285016120f9565b91505092915050565b612144816120d8565b82525050565b600060208201905061215f600083018461213b565b92915050565b600080fd5b600080fd5b6000601f19601f8301169050919050565b7f4e487b7100000000000000000000000000000000000000000000000000000000600052604160045260246000fd5b6121b88261216f565b810181811067ffffffffffffffff821117156121d7576121d6612180565b5b80604052505050565b60006121ea6120c4565b90506121f682826121af565b919050565b600067ffffffffffffffff82111561221657612215612180565b5b61221f8261216f565b9050602081019050919050565b82818337600083830152505050565b600061224e612249846121fb565b6121e0565b90508281526020810184848401111561226a5761226961216a565b5b61227584828561222c565b509392505050565b600082601f83011261229257612291612165565b5b81356122a284826020860161223b565b91505092915050565b6000602082840312156122c1576122c06120ce565b5b600082013567ffffffffffffffff8111156122df576122de6120d3565b5b6122eb8482850161227d565b91505092915050565b600081519050919050565b600082825260208201905092915050565b6000819050602082019050919050565b612329816120d8565b82525050565b600081519050919050565b600082825260208201905092915050565b60005b8381101561236957808201518184015260208101905061234e565b83811115612378576000848401525b50505050565b60006123898261232f565b612393818561233a565b93506123a381856020860161234b565b6123ac8161216f565b840191505092915050565b600060a0830160008301516123cf6000860182612320565b50602083015184820360208601526123e7828261237e565b91505060408301518482036040860152612401828261237e565b9150506060830151848203606086015261241b828261237e565b91505060808301518482036080860152612435828261237e565b9150508091505092915050565b600061244e83836123b7565b905092915050565b6000602082019050919050565b600061246e826122f4565b61247881856122ff565b93508360208202850161248a85612310565b8060005b858110156124c657848403895281516124a78582612442565b94506124b283612456565b925060208a0199505060018101905061248e565b50829750879550505050505092915050565b600060208201905081810360008301526124f28184612463565b905092915050565b60008060008060808587031215612514576125136120ce565b5b600085013567ffffffffffffffff811115612532576125316120d3565b5b61253e8782880161227d565b945050602085013567ffffffffffffffff81111561255f5761255e6120d3565b5b61256b8782880161227d565b935050604085013567ffffffffffffffff81111561258c5761258b6120d3565b5b6125988782880161227d565b925050606085013567ffffffffffffffff8111156125b9576125b86120d3565b5b6125c58782880161227d565b91505092959194509250565b60008115159050919050565b6125e6816125d1565b82525050565b600060208201905061260160008301846125dd565b92915050565b600060a08301600083015161261f6000860182612320565b5060208301518482036020860152612637828261237e565b91505060408301518482036040860152612651828261237e565b9150506060830151848203606086015261266b828261237e565b91505060808301518482036080860152612685828261237e565b9150508091505092915050565b600060208201905081810360008301526126ac8184612607565b905092915050565b600073ffffffffffffffffffffffffffffffffffffffff82169050919050565b60006126df826126b4565b9050919050565b6126ef816126d4565b82525050565b600060208201905061270a60008301846126e6565b92915050565b600081519050919050565b600082825260208201905092915050565b6000819050602082019050919050565b6000612748838361237e565b905092915050565b6000602082019050919050565b600061276882612710565b612772818561271b565b9350836020820285016127848561272c565b8060005b858110156127c057848403895281516127a1858261273c565b94506127ac83612750565b925060208a01995050600181019050612788565b50829750879550505050505092915050565b600060208201905081810360008301526127ec818461275d565b905092915050565b600082825260208201905092915050565b60006128108261232f565b61281a81856127f4565b935061282a81856020860161234b565b6128338161216f565b840191505092915050565b600060a082019050612853600083018861213b565b81810360208301526128658187612805565b905081810360408301526128798186612805565b9050818103606083015261288d8185612805565b905081810360808301526128a18184612805565b90509695505050505050565b600080600080600060a086880312156128c9576128c86120ce565b5b60006128d7888289016120f9565b955050602086013567ffffffffffffffff8111156128f8576128f76120d3565b5b6129048882890161227d565b945050604086013567ffffffffffffffff811115612925576129246120d3565b5b6129318882890161227d565b935050606086013567ffffffffffffffff811115612952576129516120d3565b5b61295e8882890161227d565b925050608086013567ffffffffffffffff81111561297f5761297e6120d3565b5b61298b8882890161227d565b9150509295509295909350565b7f4e6f7420617574686f72697a65642e204f6e6c7920746865206f776e6572206360008201527f616e2063616c6c20746869732066756e6374696f6e2e00000000000000000000602082015250565b60006129f46036836127f4565b91506129ff82612998565b604082019050919050565b60006020820190508181036000830152612a23816129e7565b9050919050565b7f416e746971756520646f6573206e6f742065786973742e000000000000000000600082015250565b6000612a606017836127f4565b9150612a6b82612a2a565b602082019050919050565b60006020820190508181036000830152612a8f81612a53565b9050919050565b7f4e487b7100000000000000000000000000000000000000000000000000000000600052601160045260246000fd5b6000612ad0826120d8565b9150612adb836120d8565b925082821015612aee57612aed612a96565b5b828203905092915050565b6000612b04826120d8565b9150612b0f836120d8565b9250827fffffffffffffffffffffffffffffffffffffffffffffffffffffffffffffffff03821115612b4457612b43612a96565b5b828201905092915050565b7f4e487b7100000000000000000000000000000000000000000000000000000000600052602260045260246000fd5b60006002820490506001821680612b9657607f821691505b602082108103612ba957612ba8612b4f565b5b50919050565b6000612bba826120d8565b91507fffffffffffffffffffffffffffffffffffffffffffffffffffffffffffffffff8203612bec57612beb612a96565b5b600182019050919050565b6000612c02826120d8565b915060008203612c1557612c14612a96565b5b600182039050919050565b7f4e487b7100000000000000000000000000000000000000000000000000000000600052603260045260246000fd5b600081905092915050565b6000612c658261232f565b612c6f8185612c4f565b9350612c7f81856020860161234b565b80840191505092915050565b6000612c978284612c5a565b915081905092915050565b60008190508160005260206000209050919050565b60008154612cc481612b7e565b612cce8186612c4f565b94506001821660008114612ce95760018114612cfa57612d2d565b60ff19831686528186019350612d2d565b612d0385612ca2565b60005b83811015612d2557815481890152600182019150602081019050612d06565b838801955050505b50505092915050565b6000612d428284612cb7565b91508190509291505056fea26469706673582212209cb1b79a9a15dd0f2a1ee46057f541623ba3c637a346d3d28b7eccadb379f91564736f6c634300080d0033",
  "immutableReferences": {},
  "source": "// SPDX-License-Identifier: MIT\r\npragma solidity ^0.8.0;\r\n\r\ncontract AntiqueDegitize {\r\n    address public owner;\r\n    uint256 public nextAntiqueId;\r\n\r\n     struct Antique {\r\n        uint256 id;\r\n        string name;\r\n        string category;\r\n        string description;\r\n        string imageName; \r\n    }\r\n    mapping(uint256 => Antique) public antiques;\r\n    mapping(string => bool) public uniqueCategories;\r\n\r\n    event AntiqueUploaded(uint256 id, string name, string category, string description, string imageName); // Updated event\r\n    event AntiqueUpdated(uint256 id, string name, string category, string description, string imageName); // Updated event\r\n    event AntiqueRemoved(uint256 id);\r\n\r\n\r\n    modifier onlyOwner() {\r\n        require(msg.sender == owner, \"Not authorized. Only the owner can call this function.\");\r\n        _;\r\n    }\r\n\r\n    constructor() {\r\n        owner = msg.sender;\r\n        nextAntiqueId = 1;\r\n    }\r\n\r\n    function uploadAntique(string memory name, string memory category, string memory description, string memory imageName) external onlyOwner { // Updated function\r\n        uint256 antiqueId = nextAntiqueId;\r\n        nextAntiqueId++;\r\n\r\n        antiques[antiqueId] = Antique({\r\n            id: antiqueId,\r\n            name: name,\r\n            category: category,\r\n            description: description,\r\n            imageName: imageName\r\n        });\r\n\r\n        // Update uniqueCategories mapping\r\n        uniqueCategories[category] = true;\r\n\r\n        emit AntiqueUploaded(antiqueId, name, category, description, imageName);\r\n    }\r\n\r\n    function updateAntique(uint256 antiqueId, string memory name, string memory category, string memory description, string memory imageName) external onlyOwner { // Updated function\r\n        require(antiqueId < nextAntiqueId, \"Antique does not exist.\");\r\n\r\n        // Update uniqueCategories mapping\r\n        uniqueCategories[antiques[antiqueId].category] = false;\r\n        uniqueCategories[category] = true;\r\n\r\n        Antique storage antique = antiques[antiqueId];\r\n        antique.name = name;\r\n        antique.category = category;\r\n        antique.description = description;\r\n        antique.imageName = imageName;\r\n\r\n        emit AntiqueUpdated(antiqueId, name, category, description, imageName); // Updated event\r\n    }\r\n\r\n   function searchAntique(string memory searchTerm) external view returns (Antique[] memory) {\r\n    // Count the number of antiques matching the search term\r\n    uint256 matchingCount = 0;\r\n\r\n    // Loop through antiques to count matching antiques\r\n    for (uint256 i = 1; i < nextAntiqueId; i++) {\r\n        if (compareStrings(antiques[i].name, searchTerm) || compareStrings(antiques[i].category, searchTerm)) {\r\n            matchingCount++;\r\n        }\r\n    }\r\n\r\n    // Create an array to store matching antiques\r\n    Antique[] memory matchingAntiques = new Antique[](matchingCount);\r\n    uint256 index = 0;\r\n\r\n    // Populate the array with matching antiques\r\n    for (uint256 i = 1; i < nextAntiqueId; i++) {\r\n        if (compareStrings(antiques[i].name, searchTerm) || compareStrings(antiques[i].category, searchTerm)) {\r\n            matchingAntiques[index] = antiques[i];\r\n            index++;\r\n        }\r\n    }\r\n\r\n    return matchingAntiques;\r\n}\r\n\r\n\r\n   function removeAntique(uint256 antiqueId) external onlyOwner {\r\n    require(antiqueId < nextAntiqueId, \"Antique does not exist.\");\r\n\r\n    // Delete the antique\r\n    delete antiques[antiqueId];\r\n\r\n    // Shift the antiques after the removed antique one position backward\r\n    for (uint256 i = antiqueId; i < nextAntiqueId - 1; i++) {\r\n        antiques[i] = antiques[i + 1];\r\n        antiques[i].id = i; // Update the ID of the shifted antique\r\n    }\r\n\r\n    // Delete the last antique (since it has been shifted)\r\n    delete antiques[nextAntiqueId - 1];\r\n\r\n    // Decrement nextAntiqueId\r\n    nextAntiqueId--;\r\n\r\n    // Emit event for the removal of the antique\r\n    emit AntiqueRemoved(antiqueId);\r\n}\r\n\r\n\r\n    function compareStrings(string memory a, string memory b) internal pure returns (bool) {\r\n        return (keccak256(abi.encodePacked((a))) == keccak256(abi.encodePacked((b))));\r\n    }\r\n\r\n    function getAntiques() external view returns (Antique[] memory) {\r\n        Antique[] memory antiqueList = new Antique[](nextAntiqueId - 1);\r\n\r\n        for (uint256 i = 1; i < nextAntiqueId; i++) {\r\n            antiqueList[i - 1] = antiques[i];\r\n        }\r\n\r\n        return antiqueList;\r\n    }\r\n\r\n    function getAntiqueCategories() external view returns (string[] memory) {\r\n        string[] memory categories = new string[](nextAntiqueId - 1);\r\n        uint256 index = 0;\r\n\r\n        // Loop through uniqueCategories mapping to collect unique categories\r\n        for (uint256 i = 1; i < nextAntiqueId; i++) {\r\n            if (uniqueCategories[antiques[i].category]) {\r\n                categories[index] = antiques[i].category;\r\n                index++;\r\n            }\r\n        }\r\n\r\n        return categories;\r\n    }\r\n\r\n    function getAntiquesByCategory(string memory category) external view returns (Antique[] memory) {\r\n        uint256 categoryCount = 0;\r\n\r\n        // Count the number of antiques in the specified category\r\n        for (uint256 i = 1; i < nextAntiqueId; i++) {\r\n            if (compareStrings(antiques[i].category, category)) {\r\n                categoryCount++;\r\n            }\r\n        }\r\n\r\n        // Create an array to store antiques in the specified category\r\n        Antique[] memory categoryAntiques = new Antique[](categoryCount);\r\n        uint256 index = 0;\r\n\r\n        // Populate the array with antiques in the specified category\r\n        for (uint256 i = 1; i < nextAntiqueId; i++) {\r\n            if (compareStrings(antiques[i].category, category)) {\r\n                categoryAntiques[index] = antiques[i];\r\n                index++;\r\n            }\r\n        }\r\n\r\n        return categoryAntiques;\r\n    }\r\n       function getAntiqueById(uint256 antiqueId) external view returns (Antique memory) {\r\n        require(antiqueId < nextAntiqueId, \"Antique does not exist.\");\r\n        return antiques[antiqueId];\r\n    }\r\n    \r\n    function getTotalAntiques() external view returns (uint256) {\r\n        return nextAntiqueId - 1;\r\n    }\r\n}",
  "sourcePath": "C:\\Users\\her73\\Downloads\\Project\\backend\\contracts\\Antique.sol",
  "compiler": {
    "name": "solc",
    "version": "0.8.13+commit.abaa5c0e.Emscripten.clang"
  },
  "schemaVersion": "3.4.16",
  "updatedAt": "2024-03-28T10:47:35.524Z",
  "networkType": "ethereum",
  "devdoc": {
    "kind": "dev",
    "methods": {},
    "version": 1
  },
  "userdoc": {
    "kind": "user",
    "methods": {},
    "version": 1
  }
}