{
  "contractName": "CrowdCampaign",
  "abi": [
    {
      "inputs": [],
      "stateMutability": "nonpayable",
      "type": "constructor"
    },
    {
      "anonymous": false,
      "inputs": [
        {
          "indexed": false,
          "internalType": "uint256",
          "name": "campaignId",
          "type": "uint256"
        }
      ],
      "name": "CampaignAdded",
      "type": "event"
    },
    {
      "anonymous": false,
      "inputs": [
        {
          "indexed": false,
          "internalType": "uint256",
          "name": "campaignId",
          "type": "uint256"
        }
      ],
      "name": "CampaignRemoved",
      "type": "event"
    },
    {
      "inputs": [],
      "name": "admin",
      "outputs": [
        {
          "internalType": "address",
          "name": "",
          "type": "address"
        }
      ],
      "stateMutability": "view",
      "type": "function",
      "constant": true
    },
    {
      "inputs": [
        {
          "internalType": "uint256",
          "name": "",
          "type": "uint256"
        }
      ],
      "name": "campaignsById",
      "outputs": [
        {
          "internalType": "string",
          "name": "campaignName",
          "type": "string"
        },
        {
          "internalType": "string",
          "name": "imageName",
          "type": "string"
        },
        {
          "internalType": "string",
          "name": "videoName",
          "type": "string"
        },
        {
          "internalType": "uint256",
          "name": "startDate",
          "type": "uint256"
        },
        {
          "internalType": "uint256",
          "name": "startTime",
          "type": "uint256"
        },
        {
          "internalType": "uint256",
          "name": "endDate",
          "type": "uint256"
        },
        {
          "internalType": "uint256",
          "name": "endTime",
          "type": "uint256"
        },
        {
          "internalType": "bool",
          "name": "isActive",
          "type": "bool"
        }
      ],
      "stateMutability": "view",
      "type": "function",
      "constant": true
    },
    {
      "inputs": [],
      "name": "totalCampaigns",
      "outputs": [
        {
          "internalType": "uint256",
          "name": "",
          "type": "uint256"
        }
      ],
      "stateMutability": "view",
      "type": "function",
      "constant": true
    },
    {
      "inputs": [
        {
          "internalType": "string",
          "name": "_campaignName",
          "type": "string"
        },
        {
          "internalType": "string",
          "name": "_imageName",
          "type": "string"
        },
        {
          "internalType": "string",
          "name": "_videoName",
          "type": "string"
        },
        {
          "internalType": "uint256",
          "name": "_startDate",
          "type": "uint256"
        },
        {
          "internalType": "uint256",
          "name": "_startTime",
          "type": "uint256"
        },
        {
          "internalType": "uint256",
          "name": "_endDate",
          "type": "uint256"
        },
        {
          "internalType": "uint256",
          "name": "_endTime",
          "type": "uint256"
        }
      ],
      "name": "addCampaign",
      "outputs": [],
      "stateMutability": "nonpayable",
      "type": "function"
    },
    {
      "inputs": [
        {
          "internalType": "uint256",
          "name": "_campaignId",
          "type": "uint256"
        }
      ],
      "name": "removeCampaign",
      "outputs": [],
      "stateMutability": "nonpayable",
      "type": "function"
    },
    {
      "inputs": [
        {
          "internalType": "uint256",
          "name": "_campaignId",
          "type": "uint256"
        }
      ],
      "name": "getCampaignById",
      "outputs": [
        {
          "components": [
            {
              "internalType": "string",
              "name": "campaignName",
              "type": "string"
            },
            {
              "internalType": "string",
              "name": "imageName",
              "type": "string"
            },
            {
              "internalType": "string",
              "name": "videoName",
              "type": "string"
            },
            {
              "internalType": "uint256",
              "name": "startDate",
              "type": "uint256"
            },
            {
              "internalType": "uint256",
              "name": "startTime",
              "type": "uint256"
            },
            {
              "internalType": "uint256",
              "name": "endDate",
              "type": "uint256"
            },
            {
              "internalType": "uint256",
              "name": "endTime",
              "type": "uint256"
            },
            {
              "internalType": "bool",
              "name": "isActive",
              "type": "bool"
            }
          ],
          "internalType": "struct CrowdCampaign.Campaign",
          "name": "",
          "type": "tuple"
        }
      ],
      "stateMutability": "view",
      "type": "function",
      "constant": true
    },
    {
      "inputs": [],
      "name": "viewCampaigns",
      "outputs": [
        {
          "components": [
            {
              "internalType": "uint256",
              "name": "campaignId",
              "type": "uint256"
            },
            {
              "components": [
                {
                  "internalType": "string",
                  "name": "campaignName",
                  "type": "string"
                },
                {
                  "internalType": "string",
                  "name": "imageName",
                  "type": "string"
                },
                {
                  "internalType": "string",
                  "name": "videoName",
                  "type": "string"
                },
                {
                  "internalType": "uint256",
                  "name": "startDate",
                  "type": "uint256"
                },
                {
                  "internalType": "uint256",
                  "name": "startTime",
                  "type": "uint256"
                },
                {
                  "internalType": "uint256",
                  "name": "endDate",
                  "type": "uint256"
                },
                {
                  "internalType": "uint256",
                  "name": "endTime",
                  "type": "uint256"
                },
                {
                  "internalType": "bool",
                  "name": "isActive",
                  "type": "bool"
                }
              ],
              "internalType": "struct CrowdCampaign.Campaign",
              "name": "campaign",
              "type": "tuple"
            }
          ],
          "internalType": "struct CrowdCampaign.CampaignWithId[]",
          "name": "",
          "type": "tuple[]"
        }
      ],
      "stateMutability": "view",
      "type": "function",
      "constant": true
    }
  ],
  "bytecode": "0x608060405234801561001057600080fd5b50336000806101000a81548173ffffffffffffffffffffffffffffffffffffffff021916908373ffffffffffffffffffffffffffffffffffffffff160217905550611ac3806100606000396000f3fe608060405234801561001057600080fd5b506004361061007d5760003560e01c8063747a512b1161005b578063747a512b146100da578063a84487eb14610111578063e6ffcaa11461012d578063f851a4401461015d5761007d565b806302932f5614610082578063366919e9146100a0578063372bfd93146100be575b600080fd5b61008a61017b565b6040516100979190610fc7565b60405180910390f35b6100a8610181565b6040516100b59190611262565b60405180910390f35b6100d860048036038101906100d391906112c4565b610463565b005b6100f460048036038101906100ef91906112c4565b610727565b60405161010898979695949392919061134a565b60405180910390f35b61012b60048036038101906101269190611512565b610914565b005b610147600480360381019061014291906112c4565b610b48565b60405161015491906116c6565b60405180910390f35b610165610db3565b6040516101729190611729565b60405180910390f35b60015481565b6060600060015467ffffffffffffffff8111156101a1576101a06113e7565b5b6040519080825280602002602001820160405280156101da57816020015b6101c7610dd7565b8152602001906001900390816101bf5790505b50905060005b60015481101561045b57808282815181106101fe576101fd611744565b5b60200260200101516000018181525050600260008281526020019081526020016000206040518061010001604052908160008201805461023d906117a2565b80601f0160208091040260200160405190810160405280929190818152602001828054610269906117a2565b80156102b65780601f1061028b576101008083540402835291602001916102b6565b820191906000526020600020905b81548152906001019060200180831161029957829003601f168201915b505050505081526020016001820180546102cf906117a2565b80601f01602080910402602001604051908101604052809291908181526020018280546102fb906117a2565b80156103485780601f1061031d57610100808354040283529160200191610348565b820191906000526020600020905b81548152906001019060200180831161032b57829003601f168201915b50505050508152602001600282018054610361906117a2565b80601f016020809104026020016040519081016040528092919081815260200182805461038d906117a2565b80156103da5780601f106103af576101008083540402835291602001916103da565b820191906000526020600020905b8154815290600101906020018083116103bd57829003601f168201915b50505050508152602001600382015481526020016004820154815260200160058201548152602001600682015481526020016007820160009054906101000a900460ff16151515158152505082828151811061043957610438611744565b5b602002602001015160200181905250808061045390611802565b9150506101e0565b508091505090565b60008054906101000a900473ffffffffffffffffffffffffffffffffffffffff1673ffffffffffffffffffffffffffffffffffffffff163373ffffffffffffffffffffffffffffffffffffffff16146104f1576040517f08c379a00000000000000000000000000000000000000000000000000000000081526004016104e8906118bc565b60405180910390fd5b6001548110610535576040517f08c379a000000000000000000000000000000000000000000000000000000000815260040161052c90611928565b60405180910390fd5b60008190505b600180546105499190611948565b81101561064d5760026000600183610561919061197c565b8152602001908152602001600020600260008381526020019081526020016000206000820181600001908054610596906117a2565b6105a1929190610df7565b5060018201816001019080546105b6906117a2565b6105c1929190610df7565b5060028201816002019080546105d6906117a2565b6105e1929190610df7565b50600382015481600301556004820154816004015560058201548160050155600682015481600601556007820160009054906101000a900460ff168160070160006101000a81548160ff021916908315150217905550905050808061064590611802565b91505061053b565b5060026000600180546106609190611948565b81526020019081526020016000206000808201600061067f9190610e84565b60018201600061068f9190610e84565b60028201600061069f9190610e84565b60038201600090556004820160009055600582016000905560068201600090556007820160006101000a81549060ff02191690555050600160008154809291906106e8906119d2565b91905055507f9ff85e3fde22d24a5fff0bcd1c1b09fb453bcd0b24e4fe7a4875cf2562c65ea78160405161071c9190610fc7565b60405180910390a150565b600260205280600052604060002060009150905080600001805461074a906117a2565b80601f0160208091040260200160405190810160405280929190818152602001828054610776906117a2565b80156107c35780601f10610798576101008083540402835291602001916107c3565b820191906000526020600020905b8154815290600101906020018083116107a657829003601f168201915b5050505050908060010180546107d8906117a2565b80601f0160208091040260200160405190810160405280929190818152602001828054610804906117a2565b80156108515780601f1061082657610100808354040283529160200191610851565b820191906000526020600020905b81548152906001019060200180831161083457829003601f168201915b505050505090806002018054610866906117a2565b80601f0160208091040260200160405190810160405280929190818152602001828054610892906117a2565b80156108df5780601f106108b4576101008083540402835291602001916108df565b820191906000526020600020905b8154815290600101906020018083116108c257829003601f168201915b5050505050908060030154908060040154908060050154908060060154908060070160009054906101000a900460ff16905088565b60008054906101000a900473ffffffffffffffffffffffffffffffffffffffff1673ffffffffffffffffffffffffffffffffffffffff163373ffffffffffffffffffffffffffffffffffffffff16146109a2576040517f08c379a0000000000000000000000000000000000000000000000000000000008152600401610999906118bc565b60405180910390fd5b80826109ae919061197c565b83856109ba919061197c565b106109fa576040517f08c379a00000000000000000000000000000000000000000000000000000000081526004016109f190611a6d565b60405180910390fd5b604051806101000160405280888152602001878152602001868152602001858152602001848152602001838152602001828152602001600115158152506002600060015481526020019081526020016000206000820151816000019080519060200190610a68929190610ec4565b506020820151816001019080519060200190610a85929190610ec4565b506040820151816002019080519060200190610aa2929190610ec4565b50606082015181600301556080820151816004015560a0820151816005015560c0820151816006015560e08201518160070160006101000a81548160ff0219169083151502179055509050507f7c8098c191cd0e82e977053a62ad9859f11573605c0556eb076ea4838964c5bb600154604051610b1f9190610fc7565b60405180910390a160016000815480929190610b3a90611802565b919050555050505050505050565b610b50610f4a565b6001548210610b94576040517f08c379a0000000000000000000000000000000000000000000000000000000008152600401610b8b90611928565b60405180910390fd5b6002600083815260200190815260200160002060405180610100016040529081600082018054610bc3906117a2565b80601f0160208091040260200160405190810160405280929190818152602001828054610bef906117a2565b8015610c3c5780601f10610c1157610100808354040283529160200191610c3c565b820191906000526020600020905b815481529060010190602001808311610c1f57829003601f168201915b50505050508152602001600182018054610c55906117a2565b80601f0160208091040260200160405190810160405280929190818152602001828054610c81906117a2565b8015610cce5780601f10610ca357610100808354040283529160200191610cce565b820191906000526020600020905b815481529060010190602001808311610cb157829003601f168201915b50505050508152602001600282018054610ce7906117a2565b80601f0160208091040260200160405190810160405280929190818152602001828054610d13906117a2565b8015610d605780601f10610d3557610100808354040283529160200191610d60565b820191906000526020600020905b815481529060010190602001808311610d4357829003601f168201915b50505050508152602001600382015481526020016004820154815260200160058201548152602001600682015481526020016007820160009054906101000a900460ff1615151515815250509050919050565b60008054906101000a900473ffffffffffffffffffffffffffffffffffffffff1681565b604051806040016040528060008152602001610df1610f4a565b81525090565b828054610e03906117a2565b90600052602060002090601f016020900481019282610e255760008555610e73565b82601f10610e365780548555610e73565b82800160010185558215610e7357600052602060002091601f016020900482015b82811115610e72578254825591600101919060010190610e57565b5b509050610e809190610f91565b5090565b508054610e90906117a2565b6000825580601f10610ea25750610ec1565b601f016020900490600052602060002090810190610ec09190610f91565b5b50565b828054610ed0906117a2565b90600052602060002090601f016020900481019282610ef25760008555610f39565b82601f10610f0b57805160ff1916838001178555610f39565b82800160010185558215610f39579182015b82811115610f38578251825591602001919060010190610f1d565b5b509050610f469190610f91565b5090565b604051806101000160405280606081526020016060815260200160608152602001600081526020016000815260200160008152602001600081526020016000151581525090565b5b80821115610faa576000816000905550600101610f92565b5090565b6000819050919050565b610fc181610fae565b82525050565b6000602082019050610fdc6000830184610fb8565b92915050565b600081519050919050565b600082825260208201905092915050565b6000819050602082019050919050565b61101781610fae565b82525050565b600081519050919050565b600082825260208201905092915050565b60005b8381101561105757808201518184015260208101905061103c565b83811115611066576000848401525b50505050565b6000601f19601f8301169050919050565b60006110888261101d565b6110928185611028565b93506110a2818560208601611039565b6110ab8161106c565b840191505092915050565b60008115159050919050565b6110cb816110b6565b82525050565b60006101008301600083015184820360008601526110ef828261107d565b91505060208301518482036020860152611109828261107d565b91505060408301518482036040860152611123828261107d565b9150506060830151611138606086018261100e565b50608083015161114b608086018261100e565b5060a083015161115e60a086018261100e565b5060c083015161117160c086018261100e565b5060e083015161118460e08601826110c2565b508091505092915050565b60006040830160008301516111a7600086018261100e565b50602083015184820360208601526111bf82826110d1565b9150508091505092915050565b60006111d8838361118f565b905092915050565b6000602082019050919050565b60006111f882610fe2565b6112028185610fed565b93508360208202850161121485610ffe565b8060005b85811015611250578484038952815161123185826111cc565b945061123c836111e0565b925060208a01995050600181019050611218565b50829750879550505050505092915050565b6000602082019050818103600083015261127c81846111ed565b905092915050565b6000604051905090565b600080fd5b600080fd5b6112a181610fae565b81146112ac57600080fd5b50565b6000813590506112be81611298565b92915050565b6000602082840312156112da576112d961128e565b5b60006112e8848285016112af565b91505092915050565b600082825260208201905092915050565b600061130d8261101d565b61131781856112f1565b9350611327818560208601611039565b6113308161106c565b840191505092915050565b611344816110b6565b82525050565b6000610100820190508181036000830152611365818b611302565b90508181036020830152611379818a611302565b9050818103604083015261138d8189611302565b905061139c6060830188610fb8565b6113a96080830187610fb8565b6113b660a0830186610fb8565b6113c360c0830185610fb8565b6113d060e083018461133b565b9998505050505050505050565b600080fd5b600080fd5b7f4e487b7100000000000000000000000000000000000000000000000000000000600052604160045260246000fd5b61141f8261106c565b810181811067ffffffffffffffff8211171561143e5761143d6113e7565b5b80604052505050565b6000611451611284565b905061145d8282611416565b919050565b600067ffffffffffffffff82111561147d5761147c6113e7565b5b6114868261106c565b9050602081019050919050565b82818337600083830152505050565b60006114b56114b084611462565b611447565b9050828152602081018484840111156114d1576114d06113e2565b5b6114dc848285611493565b509392505050565b600082601f8301126114f9576114f86113dd565b5b81356115098482602086016114a2565b91505092915050565b600080600080600080600060e0888a0312156115315761153061128e565b5b600088013567ffffffffffffffff81111561154f5761154e611293565b5b61155b8a828b016114e4565b975050602088013567ffffffffffffffff81111561157c5761157b611293565b5b6115888a828b016114e4565b965050604088013567ffffffffffffffff8111156115a9576115a8611293565b5b6115b58a828b016114e4565b95505060606115c68a828b016112af565b94505060806115d78a828b016112af565b93505060a06115e88a828b016112af565b92505060c06115f98a828b016112af565b91505092959891949750929550565b6000610100830160008301518482036000860152611626828261107d565b91505060208301518482036020860152611640828261107d565b9150506040830151848203604086015261165a828261107d565b915050606083015161166f606086018261100e565b506080830151611682608086018261100e565b5060a083015161169560a086018261100e565b5060c08301516116a860c086018261100e565b5060e08301516116bb60e08601826110c2565b508091505092915050565b600060208201905081810360008301526116e08184611608565b905092915050565b600073ffffffffffffffffffffffffffffffffffffffff82169050919050565b6000611713826116e8565b9050919050565b61172381611708565b82525050565b600060208201905061173e600083018461171a565b92915050565b7f4e487b7100000000000000000000000000000000000000000000000000000000600052603260045260246000fd5b7f4e487b7100000000000000000000000000000000000000000000000000000000600052602260045260246000fd5b600060028204905060018216806117ba57607f821691505b6020821081036117cd576117cc611773565b5b50919050565b7f4e487b7100000000000000000000000000000000000000000000000000000000600052601160045260246000fd5b600061180d82610fae565b91507fffffffffffffffffffffffffffffffffffffffffffffffffffffffffffffffff820361183f5761183e6117d3565b5b600182019050919050565b7f4f6e6c79207468652061646d696e2063616e20706572666f726d20746869732060008201527f616374696f6e2e00000000000000000000000000000000000000000000000000602082015250565b60006118a66027836112f1565b91506118b18261184a565b604082019050919050565b600060208201905081810360008301526118d581611899565b9050919050565b7f43616d706169676e20646f6573206e6f742065786973742e0000000000000000600082015250565b60006119126018836112f1565b915061191d826118dc565b602082019050919050565b6000602082019050818103600083015261194181611905565b9050919050565b600061195382610fae565b915061195e83610fae565b925082821015611971576119706117d3565b5b828203905092915050565b600061198782610fae565b915061199283610fae565b9250827fffffffffffffffffffffffffffffffffffffffffffffffffffffffffffffffff038211156119c7576119c66117d3565b5b828201905092915050565b60006119dd82610fae565b9150600082036119f0576119ef6117d3565b5b600182039050919050565b7f54686520656e64206461746520616e642074696d65206d75737420626520616660008201527f74657220746865207374617274206461746520616e642074696d652e00000000602082015250565b6000611a57603c836112f1565b9150611a62826119fb565b604082019050919050565b60006020820190508181036000830152611a8681611a4a565b905091905056fea2646970667358221220c35c1f5163ecedbf531ec22ddd3817fc951a9e14cd09a807302925070e626e3364736f6c634300080d0033",
  "immutableReferences": {},
  "source": "// SPDX-License-Identifier: MIT\r\npragma solidity ^0.8.0;\r\n\r\ncontract CrowdCampaign {\r\n    struct Campaign {\r\n        string campaignName;\r\n        string imageName;\r\n        string videoName;\r\n        uint256 startDate;\r\n        uint256 startTime;\r\n        uint256 endDate;\r\n        uint256 endTime;\r\n        bool isActive;\r\n    }\r\n\r\n    address public admin;\r\n    uint256 public totalCampaigns;\r\n    mapping(uint256 => Campaign) public campaignsById;\r\n\r\n    modifier onlyAdmin() {\r\n        require(msg.sender == admin, \"Only the admin can perform this action.\");\r\n        _;\r\n    }\r\n\r\n    event CampaignAdded(uint256 campaignId);\r\n    event CampaignRemoved(uint256 campaignId);\r\n\r\n    constructor() {\r\n        admin = msg.sender;\r\n    }\r\n\r\n    function addCampaign(\r\n        string memory _campaignName,\r\n        string memory _imageName,\r\n        string memory _videoName,\r\n        uint256 _startDate,\r\n        uint256 _startTime,\r\n        uint256 _endDate,\r\n        uint256 _endTime\r\n    ) public onlyAdmin {\r\n        require(_startDate + _startTime < _endDate + _endTime, \"The end date and time must be after the start date and time.\");\r\n\r\n        campaignsById[totalCampaigns] = Campaign({\r\n            campaignName: _campaignName,\r\n            imageName: _imageName,\r\n            videoName: _videoName,\r\n            startDate: _startDate,\r\n            startTime: _startTime,\r\n            endDate: _endDate,\r\n            endTime: _endTime,\r\n            isActive: true\r\n        });\r\n\r\n        emit CampaignAdded(totalCampaigns);\r\n        totalCampaigns++;\r\n    }\r\n\r\n    function removeCampaign(uint256 _campaignId) public onlyAdmin {\r\n        require(_campaignId < totalCampaigns, \"Campaign does not exist.\");\r\n\r\n        // Shift the campaigns after the removed campaign one position backward\r\n        for (uint256 i = _campaignId; i < totalCampaigns - 1; i++) {\r\n            campaignsById[i] = campaignsById[i + 1];\r\n        }\r\n\r\n        // Delete the last campaign (since it has been shifted)\r\n        delete campaignsById[totalCampaigns - 1];\r\n\r\n        // Decrement totalCampaigns\r\n        totalCampaigns--;\r\n\r\n        emit CampaignRemoved(_campaignId);\r\n    }\r\n\r\n    function getCampaignById(uint256 _campaignId) public view returns (Campaign memory) {\r\n        require(_campaignId < totalCampaigns, \"Campaign does not exist.\");\r\n        return campaignsById[_campaignId];\r\n    }\r\n\r\n    function viewCampaigns() external view returns (CampaignWithId[] memory) {\r\n        CampaignWithId[] memory campaignList = new CampaignWithId[](totalCampaigns);\r\n\r\n        for (uint256 i = 0; i < totalCampaigns; i++) {\r\n            campaignList[i].campaignId = i;\r\n            campaignList[i].campaign = campaignsById[i];\r\n        }\r\n\r\n        return campaignList;\r\n    }\r\n\r\n    struct CampaignWithId {\r\n        uint256 campaignId;\r\n        Campaign campaign;\r\n    }\r\n}\r\n",
  "sourcePath": "C:\\Users\\her73\\Downloads\\Project\\backend\\contracts\\Compaign.sol",
  "compiler": {
    "name": "solc",
    "version": "0.8.13+commit.abaa5c0e.Emscripten.clang"
  },
  "schemaVersion": "3.4.16",
  "updatedAt": "2024-03-28T10:47:36.400Z",
  "networkType": "ethereum",
  "devdoc": {
    "kind": "dev",
    "methods": {},
    "version": 1
  },
  "userdoc": {
    "kind": "user",
    "methods": {},
    "version": 1
  }
}