{
  "contractName": "UserManagement",
  "abi": [
    {
      "inputs": [
        {
          "internalType": "string",
          "name": "adminName",
          "type": "string"
        },
        {
          "internalType": "string",
          "name": "adminEmail",
          "type": "string"
        },
        {
          "internalType": "string",
          "name": "adminPassword",
          "type": "string"
        }
      ],
      "stateMutability": "nonpayable",
      "type": "constructor"
    },
    {
      "anonymous": false,
      "inputs": [
        {
          "indexed": false,
          "internalType": "uint256",
          "name": "userId",
          "type": "uint256"
        },
        {
          "indexed": false,
          "internalType": "string",
          "name": "userName",
          "type": "string"
        },
        {
          "indexed": false,
          "internalType": "string",
          "name": "email",
          "type": "string"
        },
        {
          "indexed": false,
          "internalType": "uint256",
          "name": "phoneNumber",
          "type": "uint256"
        }
      ],
      "name": "UserRegistered",
      "type": "event"
    },
    {
      "inputs": [],
      "name": "admin",
      "outputs": [
        {
          "internalType": "address",
          "name": "",
          "type": "address"
        }
      ],
      "stateMutability": "view",
      "type": "function",
      "constant": true
    },
    {
      "inputs": [],
      "name": "totalUsers",
      "outputs": [
        {
          "internalType": "uint256",
          "name": "",
          "type": "uint256"
        }
      ],
      "stateMutability": "view",
      "type": "function",
      "constant": true
    },
    {
      "inputs": [
        {
          "internalType": "uint256",
          "name": "",
          "type": "uint256"
        }
      ],
      "name": "usersById",
      "outputs": [
        {
          "internalType": "string",
          "name": "userName",
          "type": "string"
        },
        {
          "internalType": "string",
          "name": "email",
          "type": "string"
        },
        {
          "internalType": "uint256",
          "name": "phoneNumber",
          "type": "uint256"
        },
        {
          "internalType": "string",
          "name": "password",
          "type": "string"
        },
        {
          "internalType": "bool",
          "name": "exists",
          "type": "bool"
        }
      ],
      "stateMutability": "view",
      "type": "function",
      "constant": true
    },
    {
      "inputs": [
        {
          "internalType": "string",
          "name": "userName",
          "type": "string"
        },
        {
          "internalType": "string",
          "name": "email",
          "type": "string"
        },
        {
          "internalType": "uint256",
          "name": "phoneNumber",
          "type": "uint256"
        },
        {
          "internalType": "string",
          "name": "password",
          "type": "string"
        }
      ],
      "name": "registerUser",
      "outputs": [],
      "stateMutability": "nonpayable",
      "type": "function"
    },
    {
      "inputs": [
        {
          "internalType": "string",
          "name": "email",
          "type": "string"
        },
        {
          "internalType": "string",
          "name": "password",
          "type": "string"
        }
      ],
      "name": "login",
      "outputs": [
        {
          "internalType": "bool",
          "name": "",
          "type": "bool"
        }
      ],
      "stateMutability": "view",
      "type": "function",
      "constant": true
    },
    {
      "inputs": [],
      "name": "getTotalUsers",
      "outputs": [
        {
          "internalType": "uint256",
          "name": "",
          "type": "uint256"
        }
      ],
      "stateMutability": "view",
      "type": "function",
      "constant": true
    },
    {
      "inputs": [
        {
          "internalType": "string",
          "name": "email",
          "type": "string"
        }
      ],
      "name": "getUserByEmail",
      "outputs": [
        {
          "internalType": "string",
          "name": "",
          "type": "string"
        },
        {
          "internalType": "uint256",
          "name": "",
          "type": "uint256"
        },
        {
          "internalType": "bool",
          "name": "",
          "type": "bool"
        }
      ],
      "stateMutability": "view",
      "type": "function",
      "constant": true
    },
    {
      "inputs": [],
      "name": "viewAllUsers",
      "outputs": [
        {
          "components": [
            {
              "internalType": "string",
              "name": "userName",
              "type": "string"
            },
            {
              "internalType": "string",
              "name": "email",
              "type": "string"
            },
            {
              "internalType": "uint256",
              "name": "phoneNumber",
              "type": "uint256"
            },
            {
              "internalType": "string",
              "name": "password",
              "type": "string"
            },
            {
              "internalType": "bool",
              "name": "exists",
              "type": "bool"
            }
          ],
          "internalType": "struct UserManagement.User[]",
          "name": "",
          "type": "tuple[]"
        }
      ],
      "stateMutability": "view",
      "type": "function",
      "constant": true
    },
    {
      "inputs": [
        {
          "internalType": "uint256",
          "name": "userId",
          "type": "uint256"
        }
      ],
      "name": "getUserById",
      "outputs": [
        {
          "internalType": "string",
          "name": "",
          "type": "string"
        },
        {
          "internalType": "string",
          "name": "",
          "type": "string"
        },
        {
          "internalType": "uint256",
          "name": "",
          "type": "uint256"
        },
        {
          "internalType": "bool",
          "name": "",
          "type": "bool"
        }
      ],
      "stateMutability": "view",
      "type": "function",
      "constant": true
    }
  ],
  "bytecode": "0x60806040523480156200001157600080fd5b506040516200200c3803806200200c833981810160405281019062000037919062000427565b336000806101000a81548173ffffffffffffffffffffffffffffffffffffffff021916908373ffffffffffffffffffffffffffffffffffffffff1602179055506040518060a0016040528084815260200183815260200160008152602001828152602001600115158152506002600060015481526020019081526020016000206000820151816000019080519060200190620000d5929190620001da565b506020820151816001019080519060200190620000f4929190620001da565b506040820151816002015560608201518160030190805190602001906200011d929190620001da565b5060808201518160040160006101000a81548160ff0219169083151502179055509050506001546003836040516200015691906200052d565b908152602001604051809103902081905550600160008154809291906200017d906200057f565b91905055507ff49bbdfdd549f81e52fc845b5f1dcc2c01bc3afc2273db0b01478beed382607960018054620001b39190620005cc565b84846000604051620001c99493929190620006b7565b60405180910390a150505062000776565b828054620001e89062000741565b90600052602060002090601f0160209004810192826200020c576000855562000258565b82601f106200022757805160ff191683800117855562000258565b8280016001018555821562000258579182015b82811115620002575782518255916020019190600101906200023a565b5b5090506200026791906200026b565b5090565b5b80821115620002865760008160009055506001016200026c565b5090565b6000604051905090565b600080fd5b600080fd5b600080fd5b600080fd5b6000601f19601f8301169050919050565b7f4e487b7100000000000000000000000000000000000000000000000000000000600052604160045260246000fd5b620002f382620002a8565b810181811067ffffffffffffffff82111715620003155762000314620002b9565b5b80604052505050565b60006200032a6200028a565b9050620003388282620002e8565b919050565b600067ffffffffffffffff8211156200035b576200035a620002b9565b5b6200036682620002a8565b9050602081019050919050565b60005b838110156200039357808201518184015260208101905062000376565b83811115620003a3576000848401525b50505050565b6000620003c0620003ba846200033d565b6200031e565b905082815260208101848484011115620003df57620003de620002a3565b5b620003ec84828562000373565b509392505050565b600082601f8301126200040c576200040b6200029e565b5b81516200041e848260208601620003a9565b91505092915050565b60008060006060848603121562000443576200044262000294565b5b600084015167ffffffffffffffff81111562000464576200046362000299565b5b6200047286828701620003f4565b935050602084015167ffffffffffffffff81111562000496576200049562000299565b5b620004a486828701620003f4565b925050604084015167ffffffffffffffff811115620004c857620004c762000299565b5b620004d686828701620003f4565b9150509250925092565b600081519050919050565b600081905092915050565b60006200050382620004e0565b6200050f8185620004eb565b93506200052181856020860162000373565b80840191505092915050565b60006200053b8284620004f6565b915081905092915050565b7f4e487b7100000000000000000000000000000000000000000000000000000000600052601160045260246000fd5b6000819050919050565b60006200058c8262000575565b91507fffffffffffffffffffffffffffffffffffffffffffffffffffffffffffffffff8203620005c157620005c062000546565b5b600182019050919050565b6000620005d98262000575565b9150620005e68362000575565b925082821015620005fc57620005fb62000546565b5b828203905092915050565b620006128162000575565b82525050565b600082825260208201905092915050565b60006200063682620004e0565b62000642818562000618565b93506200065481856020860162000373565b6200065f81620002a8565b840191505092915050565b6000819050919050565b6000819050919050565b60006200069f6200069962000693846200066a565b62000674565b62000575565b9050919050565b620006b1816200067e565b82525050565b6000608082019050620006ce600083018762000607565b8181036020830152620006e2818662000629565b90508181036040830152620006f8818562000629565b9050620007096060830184620006a6565b95945050505050565b7f4e487b7100000000000000000000000000000000000000000000000000000000600052602260045260246000fd5b600060028204905060018216806200075a57607f821691505b60208210810362000770576200076f62000712565b5b50919050565b61188680620007866000396000f3fe608060405234801561001057600080fd5b50600436106100935760003560e01c80636ed6da9e116100665780636ed6da9e1461014a5780639be572f61461017d578063bff1f9e11461019b578063ec046fc7146101b9578063f851a440146101d757610093565b806318046ae114610098578063426b5382146100ca57806358467dbc146100fe57806365d66d911461012e575b600080fd5b6100b260048036038101906100ad9190610e95565b6101f5565b6040516100c193929190610f9a565b60405180910390f35b6100e460048036038101906100df9190611004565b61032d565b6040516100f5959493929190611031565b60405180910390f35b61011860048036038101906101139190611099565b610508565b6040516101259190611111565b60405180910390f35b6101486004803603810190610143919061112c565b6105cc565b005b610164600480360381019061015f9190611004565b6107e3565b60405161017494939291906111e7565b60405180910390f35b610185610998565b604051610192919061123a565b60405180910390f35b6101a36109a2565b6040516101b0919061123a565b60405180910390f35b6101c16109a8565b6040516101ce9190611403565b60405180910390f35b6101df610c43565b6040516101ec9190611466565b60405180910390f35b6060600080600060038560405161020c91906114bd565b908152602001604051809103902054905060008103610260576040517f08c379a000000000000000000000000000000000000000000000000000000000815260040161025790611520565b60405180910390fd5b60006002600083815260200190815260200160002090508060000181600201548260040160009054906101000a900460ff1682805461029e9061156f565b80601f01602080910402602001604051908101604052809291908181526020018280546102ca9061156f565b80156103175780601f106102ec57610100808354040283529160200191610317565b820191906000526020600020905b8154815290600101906020018083116102fa57829003601f168201915b5050505050925094509450945050509193909250565b60026020528060005260406000206000915090508060000180546103509061156f565b80601f016020809104026020016040519081016040528092919081815260200182805461037c9061156f565b80156103c95780601f1061039e576101008083540402835291602001916103c9565b820191906000526020600020905b8154815290600101906020018083116103ac57829003601f168201915b5050505050908060010180546103de9061156f565b80601f016020809104026020016040519081016040528092919081815260200182805461040a9061156f565b80156104575780601f1061042c57610100808354040283529160200191610457565b820191906000526020600020905b81548152906001019060200180831161043a57829003601f168201915b5050505050908060020154908060030180546104729061156f565b80601f016020809104026020016040519081016040528092919081815260200182805461049e9061156f565b80156104eb5780601f106104c0576101008083540402835291602001916104eb565b820191906000526020600020905b8154815290600101906020018083116104ce57829003601f168201915b5050505050908060040160009054906101000a900460ff16905085565b60008060038460405161051b91906114bd565b90815260200160405180910390205490506000810361053e5760009150506105c6565b60006002600083815260200190815260200160002090508060040160009054906101000a900460ff1680156105c157508360405160200161057f91906114bd565b60405160208183030381529060405280519060200120816003016040516020016105a99190611634565b60405160208183030381529060405280519060200120145b925050505b92915050565b60026000600154815260200190815260200160002060040160009054906101000a900460ff1615610632576040517f08c379a000000000000000000000000000000000000000000000000000000000815260040161062990611697565b60405180910390fd5b600060038460405161064491906114bd565b90815260200160405180910390205414610693576040517f08c379a000000000000000000000000000000000000000000000000000000000815260040161068a90611703565b60405180910390fd5b6040518060a001604052808581526020018481526020018381526020018281526020016001151581525060026000600154815260200190815260200160002060008201518160000190805190602001906106ee929190610c67565b50602082015181600101908051906020019061070b929190610c67565b50604082015181600201556060820151816003019080519060200190610732929190610c67565b5060808201518160040160006101000a81548160ff02191690831515021790555090505060015460038460405161076991906114bd565b9081526020016040518091039020819055506001600081548092919061078e90611752565b91905055507ff49bbdfdd549f81e52fc845b5f1dcc2c01bc3afc2273db0b01478beed3826079600180546107c2919061179a565b8585856040516107d594939291906117ce565b60405180910390a150505050565b60608060008060006002600087815260200190815260200160002090508060040160009054906101000a900460ff16610851576040517f08c379a000000000000000000000000000000000000000000000000000000000815260040161084890611520565b60405180910390fd5b806000018160010182600201548360040160009054906101000a900460ff1683805461087c9061156f565b80601f01602080910402602001604051908101604052809291908181526020018280546108a89061156f565b80156108f55780601f106108ca576101008083540402835291602001916108f5565b820191906000526020600020905b8154815290600101906020018083116108d857829003601f168201915b505050505093508280546109089061156f565b80601f01602080910402602001604051908101604052809291908181526020018280546109349061156f565b80156109815780601f1061095657610100808354040283529160200191610981565b820191906000526020600020905b81548152906001019060200180831161096457829003601f168201915b505050505092509450945094509450509193509193565b6000600154905090565b60015481565b6060600060015467ffffffffffffffff8111156109c8576109c7610d6a565b5b604051908082528060200260200182016040528015610a0157816020015b6109ee610ced565b8152602001906001900390816109e65790505b50905060005b600154811015610c3b57600260008281526020019081526020016000206040518060a0016040529081600082018054610a3f9061156f565b80601f0160208091040260200160405190810160405280929190818152602001828054610a6b9061156f565b8015610ab85780601f10610a8d57610100808354040283529160200191610ab8565b820191906000526020600020905b815481529060010190602001808311610a9b57829003601f168201915b50505050508152602001600182018054610ad19061156f565b80601f0160208091040260200160405190810160405280929190818152602001828054610afd9061156f565b8015610b4a5780601f10610b1f57610100808354040283529160200191610b4a565b820191906000526020600020905b815481529060010190602001808311610b2d57829003601f168201915b5050505050815260200160028201548152602001600382018054610b6d9061156f565b80601f0160208091040260200160405190810160405280929190818152602001828054610b999061156f565b8015610be65780601f10610bbb57610100808354040283529160200191610be6565b820191906000526020600020905b815481529060010190602001808311610bc957829003601f168201915b505050505081526020016004820160009054906101000a900460ff161515151581525050828281518110610c1d57610c1c611821565b5b60200260200101819052508080610c3390611752565b915050610a07565b508091505090565b60008054906101000a900473ffffffffffffffffffffffffffffffffffffffff1681565b828054610c739061156f565b90600052602060002090601f016020900481019282610c955760008555610cdc565b82601f10610cae57805160ff1916838001178555610cdc565b82800160010185558215610cdc579182015b82811115610cdb578251825591602001919060010190610cc0565b5b509050610ce99190610d1e565b5090565b6040518060a00160405280606081526020016060815260200160008152602001606081526020016000151581525090565b5b80821115610d37576000816000905550600101610d1f565b5090565b6000604051905090565b600080fd5b600080fd5b600080fd5b600080fd5b6000601f19601f8301169050919050565b7f4e487b7100000000000000000000000000000000000000000000000000000000600052604160045260246000fd5b610da282610d59565b810181811067ffffffffffffffff82111715610dc157610dc0610d6a565b5b80604052505050565b6000610dd4610d3b565b9050610de08282610d99565b919050565b600067ffffffffffffffff821115610e0057610dff610d6a565b5b610e0982610d59565b9050602081019050919050565b82818337600083830152505050565b6000610e38610e3384610de5565b610dca565b905082815260208101848484011115610e5457610e53610d54565b5b610e5f848285610e16565b509392505050565b600082601f830112610e7c57610e7b610d4f565b5b8135610e8c848260208601610e25565b91505092915050565b600060208284031215610eab57610eaa610d45565b5b600082013567ffffffffffffffff811115610ec957610ec8610d4a565b5b610ed584828501610e67565b91505092915050565b600081519050919050565b600082825260208201905092915050565b60005b83811015610f18578082015181840152602081019050610efd565b83811115610f27576000848401525b50505050565b6000610f3882610ede565b610f428185610ee9565b9350610f52818560208601610efa565b610f5b81610d59565b840191505092915050565b6000819050919050565b610f7981610f66565b82525050565b60008115159050919050565b610f9481610f7f565b82525050565b60006060820190508181036000830152610fb48186610f2d565b9050610fc36020830185610f70565b610fd06040830184610f8b565b949350505050565b610fe181610f66565b8114610fec57600080fd5b50565b600081359050610ffe81610fd8565b92915050565b60006020828403121561101a57611019610d45565b5b600061102884828501610fef565b91505092915050565b600060a082019050818103600083015261104b8188610f2d565b9050818103602083015261105f8187610f2d565b905061106e6040830186610f70565b81810360608301526110808185610f2d565b905061108f6080830184610f8b565b9695505050505050565b600080604083850312156110b0576110af610d45565b5b600083013567ffffffffffffffff8111156110ce576110cd610d4a565b5b6110da85828601610e67565b925050602083013567ffffffffffffffff8111156110fb576110fa610d4a565b5b61110785828601610e67565b9150509250929050565b60006020820190506111266000830184610f8b565b92915050565b6000806000806080858703121561114657611145610d45565b5b600085013567ffffffffffffffff81111561116457611163610d4a565b5b61117087828801610e67565b945050602085013567ffffffffffffffff81111561119157611190610d4a565b5b61119d87828801610e67565b93505060406111ae87828801610fef565b925050606085013567ffffffffffffffff8111156111cf576111ce610d4a565b5b6111db87828801610e67565b91505092959194509250565b600060808201905081810360008301526112018187610f2d565b905081810360208301526112158186610f2d565b90506112246040830185610f70565b6112316060830184610f8b565b95945050505050565b600060208201905061124f6000830184610f70565b92915050565b600081519050919050565b600082825260208201905092915050565b6000819050602082019050919050565b600082825260208201905092915050565b600061129d82610ede565b6112a78185611281565b93506112b7818560208601610efa565b6112c081610d59565b840191505092915050565b6112d481610f66565b82525050565b6112e381610f7f565b82525050565b600060a08301600083015184820360008601526113068282611292565b915050602083015184820360208601526113208282611292565b915050604083015161133560408601826112cb565b506060830151848203606086015261134d8282611292565b915050608083015161136260808601826112da565b508091505092915050565b600061137983836112e9565b905092915050565b6000602082019050919050565b600061139982611255565b6113a38185611260565b9350836020820285016113b585611271565b8060005b858110156113f157848403895281516113d2858261136d565b94506113dd83611381565b925060208a019950506001810190506113b9565b50829750879550505050505092915050565b6000602082019050818103600083015261141d818461138e565b905092915050565b600073ffffffffffffffffffffffffffffffffffffffff82169050919050565b600061145082611425565b9050919050565b61146081611445565b82525050565b600060208201905061147b6000830184611457565b92915050565b600081905092915050565b600061149782610ede565b6114a18185611481565b93506114b1818560208601610efa565b80840191505092915050565b60006114c9828461148c565b915081905092915050565b7f5573657220646f6573206e6f742065786973742e000000000000000000000000600082015250565b600061150a601483610ee9565b9150611515826114d4565b602082019050919050565b60006020820190508181036000830152611539816114fd565b9050919050565b7f4e487b7100000000000000000000000000000000000000000000000000000000600052602260045260246000fd5b6000600282049050600182168061158757607f821691505b60208210810361159a57611599611540565b5b50919050565b60008190508160005260206000209050919050565b600081546115c28161156f565b6115cc8186611481565b945060018216600081146115e757600181146115f85761162b565b60ff1983168652818601935061162b565b611601856115a0565b60005b8381101561162357815481890152600182019150602081019050611604565b838801955050505b50505092915050565b600061164082846115b5565b915081905092915050565b7f5573657220616c726561647920726567697374657265642e0000000000000000600082015250565b6000611681601883610ee9565b915061168c8261164b565b602082019050919050565b600060208201905081810360008301526116b081611674565b9050919050565b7f456d61696c20616c726561647920726567697374657265642e00000000000000600082015250565b60006116ed601983610ee9565b91506116f8826116b7565b602082019050919050565b6000602082019050818103600083015261171c816116e0565b9050919050565b7f4e487b7100000000000000000000000000000000000000000000000000000000600052601160045260246000fd5b600061175d82610f66565b91507fffffffffffffffffffffffffffffffffffffffffffffffffffffffffffffffff820361178f5761178e611723565b5b600182019050919050565b60006117a582610f66565b91506117b083610f66565b9250828210156117c3576117c2611723565b5b828203905092915050565b60006080820190506117e36000830187610f70565b81810360208301526117f58186610f2d565b905081810360408301526118098185610f2d565b90506118186060830184610f70565b95945050505050565b7f4e487b7100000000000000000000000000000000000000000000000000000000600052603260045260246000fdfea2646970667358221220ef8e8efc7f7daf3212050f7cc34c79b8631a2cfb691bcf83f34222d1e4af1fba64736f6c634300080d0033",
  "immutableReferences": {},
  "source": "// SPDX-License-Identifier: MIT\r\npragma solidity ^0.8.0;\r\n\r\ncontract UserManagement {\r\n    address public admin;\r\n    uint256 public totalUsers;\r\n    \r\n    struct User {\r\n        string userName;\r\n        string email;\r\n        uint256 phoneNumber;\r\n        string password;  // For simplicity, storing passwords as plain text (not recommended in a real-world scenario)\r\n        bool exists;\r\n    }\r\n\r\n    mapping(uint256 => User) public usersById;\r\n    mapping(string => uint256) private userIdByEmail; // Mapping to get user ID by email\r\n\r\n    modifier onlyAdmin() {\r\n        require(msg.sender == admin, \"Not authorized. Only admin can call this function.\");\r\n        _;\r\n    }\r\n\r\n    event UserRegistered(uint256 userId, string userName, string email, uint256 phoneNumber);\r\n\r\n    constructor(string memory adminName, string memory adminEmail, string memory adminPassword) {\r\n        admin = msg.sender;\r\n        usersById[totalUsers] = User({\r\n            userName: adminName,\r\n            email: adminEmail,\r\n            phoneNumber: 0,  // Admin doesn't have a phone number in this example\r\n            password: adminPassword,\r\n            exists: true\r\n        });\r\n        userIdByEmail[adminEmail] = totalUsers;\r\n        totalUsers++;\r\n\r\n        emit UserRegistered(totalUsers - 1, adminName, adminEmail, 0);\r\n    }\r\n\r\n    function registerUser(string memory userName, string memory email, uint256 phoneNumber, string memory password) external {\r\n        require(!usersById[totalUsers].exists, \"User already registered.\");\r\n        require(userIdByEmail[email] == 0, \"Email already registered.\");\r\n        \r\n        usersById[totalUsers] = User({\r\n            userName: userName,\r\n            email: email,\r\n            phoneNumber: phoneNumber,\r\n            password: password,\r\n            exists: true\r\n        });\r\n        userIdByEmail[email] = totalUsers;\r\n        totalUsers++;\r\n\r\n        emit UserRegistered(totalUsers - 1, userName, email, phoneNumber);\r\n    }\r\n\r\n    function login(string memory email, string memory password) external view returns (bool) {\r\n        uint256 userId = userIdByEmail[email];\r\n        if (userId == 0) {\r\n            return false; // User not found\r\n        }\r\n        User storage user = usersById[userId];\r\n        return user.exists && keccak256(abi.encodePacked(user.password)) == keccak256(abi.encodePacked(password));\r\n    }\r\n\r\n    function getTotalUsers() external view returns (uint256) {\r\n        return totalUsers;\r\n    }\r\n\r\n    function getUserByEmail(string memory email) external view returns (string memory, uint256, bool) {\r\n        uint256 userId = userIdByEmail[email];\r\n        require(userId != 0, \"User does not exist.\");\r\n        User storage user = usersById[userId];\r\n        return (user.userName, user.phoneNumber, user.exists);\r\n    }\r\n\r\n    function viewAllUsers() external view returns (User[] memory) {\r\n    User[] memory allUsers = new User[](totalUsers);\r\n    for (uint256 i = 0; i < totalUsers; i++) {\r\n        allUsers[i] = usersById[i];\r\n    }\r\n    return allUsers;\r\n}\r\n\r\n\r\n    function getUserById(uint256 userId) external view returns (string memory, string memory, uint256, bool) {\r\n        User storage user = usersById[userId];\r\n        require(user.exists, \"User does not exist.\");\r\n        return (user.userName, user.email, user.phoneNumber, user.exists);\r\n    }\r\n}\r\n",
  "sourcePath": "C:\\Users\\her73\\Downloads\\Project\\backend\\contracts\\Users.sol",
  "compiler": {
    "name": "solc",
    "version": "0.8.13+commit.abaa5c0e.Emscripten.clang"
  },
  "schemaVersion": "3.4.16",
  "updatedAt": "2024-03-28T10:47:34.289Z",
  "networkType": "ethereum",
  "devdoc": {
    "kind": "dev",
    "methods": {},
    "version": 1
  },
  "userdoc": {
    "kind": "user",
    "methods": {},
    "version": 1
  }
}